{
  'txid': 'e8d412b098f1e7be73770cec490dc8f6db153a6d92d8274ad6fc21099fbdcd53', 'hash': '50af3f7f4503169d2e4bdf51c7c0b3722892da7195dd480e6b8ef8449ac03935', 'version': 2, 'size': 225, 'vsize': 144, 'weight': 573, 'locktime': 0

  # Transactions IN
  , 'vin': [{'txid': 'b0a72862f4b152c998c92e23e936a8a091340c9d1eb0772434f9784455db28b7',
  'vout': 1, 'scriptSig': {'asm': '', 'hex': ''}, 'txinwitness': ['304402205bdc6ec17482e66844bda20c4b1ca2a23a69087da49f91c108f8dfdfb1ee32b402200c931653b7882ef6c8e20a56a8db5e72a5799ad43cf42259d38b019087d9fc7301', '02d2aa190c5544f76269200a9ea61222d6de1ea72c20cf3f667393389337f9d935'], 'sequence': 4294967293}]

  # Transactions OUT
  , 'vout': [{'value': Decimal('0.00994263'), 'n': 0, 'scriptPubKey': {'asm': 'OP_DUP OP_HASH160 1fb4a282ce2e568f22fff8878657bbc686a295d4 OP_EQUALVERIFY OP_CHECKSIG', 'hex': '76a9141fb4a282ce2e568f22fff8878657bbc686a295d488ac', 'address': '13teLg3rUKCFMCp23vFZUUy5KpKEQi64JG', 'type': 'pubkeyhash'}}, {'value': Decimal('0.47324641'), 'n': 1, 'scriptPubKey': {'asm': '0 b1a6c7c5fee0acb48031d7ac385380c617e45366', 'hex': '0014b1a6c7c5fee0acb48031d7ac385380c617e45366', 'address': 'bc1qkxnv0307uzktfqp367krs5uqcct7g5mxc3p77c', 'type': 'witness_v0_keyhash'}}], 'fee': Decimal('0.00070000'), 'hex': '02000000000101b728db554478f9342477b01e9d0c3491a0a836e9232ec998c952b1f46228a7b00100000000fdffffff02d72b0f00000000001976a9141fb4a282ce2e568f22fff8878657bbc686a295d488ace11dd20200000000160014b1a6c7c5fee0acb48031d7ac385380c617e453660247304402205bdc6ec17482e66844bda20c4b1ca2a23a69087da49f91c108f8dfdfb1ee32b402200c931653b7882ef6c8e20a56a8db5e72a5799ad43cf42259d38b019087d9fc73012102d2aa190c5544f76269200a9ea61222d6de1ea72c20cf3f667393389337f9d93500000000'},





  {'txid': '0960cf25483ac8430715c28dc165c3befa0969f6777d0172e92618c40a42167f', 'hash': '00fbc4387b11687711f45752ed8dbc764f49e19b2e03065df4857bff62f4ffcb', 'version': 2, 'size': 248, 'vsize': 166, 'weight': 662, 'locktime': 0, 'vin': [{'txid': 'e830274ffa2228b65c18a1fcdbab73808a7f241d20a9de483409fbdb52f0b8f7', 'vout': 1, 'scriptSig': {'asm': '00143d9c566ba28b31f84d1954d73bfddf4435040b4a', 'hex': '1600143d9c566ba28b31f84d1954d73bfddf4435040b4a'}, 'txinwitness': ['3045022100b100135c34f2a52fe58e74adab6b1c376180f9e43fb3536e8001c533ca4b5ca402200e481b8976f6bf520046279c63b7dbba09c56cf581f9b2cd85afca63cd6d089e01', '033997d83155d5eb38265d931767410da846cf5ed6f8122b21d001f018b9dc15bc'], 'sequence': 4294967295}], 'vout': [{'value': Decimal('0.02790500'), 'n': 0, 'scriptPubKey': {'asm': 'OP_HASH160 7d3362d329f06f1f9ad300624bf2d1c79f73646d OP_EQUAL', 'hex': 'a9147d3362d329f06f1f9ad300624bf2d1c79f73646d87', 'address': '3D71wtPZU7ed4EBcwyCEbDu2RHEcGKeN5e', 'type': 'scripthash'}}, {'value': Decimal('0.01145701'), 'n': 1, 'scriptPubKey': {'asm': 'OP_HASH160 31af8db328ed0c552596a204e0e62c51822abb7a OP_EQUAL', 'hex': 'a91431af8db328ed0c552596a204e0e62c51822abb7a87', 'address': '36DjLcepTeGX4Zy7KksVnRidY7ZPusQHnQ', 'type': 'scripthash'}}], 'fee': Decimal('0.00045000'), 'hex': '02000000000101f7b8f052dbfb093448dea9201d247f8a8073abdbfca1185cb62822fa4f2730e801000000171600143d9c566ba28b31f84d1954d73bfddf4435040b4affffffff0264942a000000000017a9147d3362d329f06f1f9ad300624bf2d1c79f73646d87657b11000000000017a91431af8db328ed0c552596a204e0e62c51822abb7a8702483045022100b100135c34f2a52fe58e74adab6b1c376180f9e43fb3536e8001c533ca4b5ca402200e481b8976f6bf520046279c63b7dbba09c56cf581f9b2cd85afca63cd6d089e0121033997d83155d5eb38265d931767410da846cf5ed6f8122b21d001f018b9dc15bc00000000'}
