{'txid': '1cea5676628370ae9703b9bb8eb90ec4d936d7873c6436760bd72f213713fae2'
, 'hash': '903e3e521f0cfc40fc63c51282ca3fee90bfde219fc6df828f15f0fed3b6b03c'
, 'version': 1, 'size': 405, 'vsize': 378, 'weight': 1512, 'locktime': 3774542453


# Transactions IN
, 'vin': [{'coinbase': '03eb4a0b049e1ea2622f706f6f6c696e2e636f6d2ffabe6d6d44bf518cf5e248a47c262550acc2abe4f3eb0bbf2f51250c44e7eba4565a443b010000000000000094651fa5032142406107b87789cf6b9f1200bdac010000000000'
, 'txinwitness': ['0000000000000000000000000000000000000000000000000000000000000000']
, 'sequence': 4294967295}]

# Transactions OUT
, 'vout': [
  {'value': Decimal('6.29284660'), 'n': 0, 'scriptPubKey': {'asm': 'OP_DUP OP_HASH160 a8a3f4fbd6a9a7b8c668730694a1e54df3e07b9f OP_EQUALVERIFY OP_CHECKSIG', 'hex': '76a914a8a3f4fbd6a9a7b8c668730694a1e54df3e07b9f88ac', 'address': '1GNgwA8JfG7Kc8akJ8opdNWJUihqUztfPe', 'type': 'pubkeyhash'}},

  {'value': Decimal('0E-8'), 'n': 1, 'scriptPubKey': {'asm': 'OP_RETURN b9e11b6daedbbf721da236106fc96811a14004cfd0993f2cb80aa4b08b8e63f56b088dfb', 'hex': '6a24b9e11b6daedbbf721da236106fc96811a14004cfd0993f2cb80aa4b08b8e63f56b088dfb', 'type': 'nulldata'}}

  , {'value': Decimal('0E-8'), 'n': 2, 'scriptPubKey': {'asm': 'OP_RETURN 486174683d20f7cb2242dcb411c958d83fc15a597e717f78d5c0069c1cc9aa5bbbedbced', 'hex': '6a24486174683d20f7cb2242dcb411c958d83fc15a597e717f78d5c0069c1cc9aa5bbbedbced', 'type': 'nulldata'}}

  , {'value': Decimal('0E-8'), 'n': 3, 'scriptPubKey': {'asm': 'OP_RETURN aa21a9ed0e6d5d5d118d53386b8f96816c77e677ac2bf1c0b70ec808ad64e2e2d42aa912', 'hex': '6a24aa21a9ed0e6d5d5d118d53386b8f96816c77e677ac2bf1c0b70ec808ad64e2e2d42aa912', 'type': 'nulldata'}}

  , {'value': Decimal('0E-8'), 'n': 4, 'scriptPubKey': {'asm': 'OP_RETURN 52534b424c4f434b3a4778f81c9361986d6f4676472984140900fd4d6d94eed0c91ef359210042d1d5', 'hex': '6a2952534b424c4f434b3a4778f81c9361986d6f4676472984140900fd4d6d94eed0c91ef359210042d1d5', 'type': 'nulldata'}}
]


, 'hex': '010000000001010000000000000000000000000000000000000000000000000000000000000000ffffffff5b03eb4a0b049e1ea2622f706f6f6c696e2e636f6d2ffabe6d6d44bf518cf5e248a47c262550acc2abe4f3eb0bbf2f51250c44e7eba4565a443b010000000000000094651fa5032142406107b87789cf6b9f1200bdac010000000000ffffffff05341f8225000000001976a914a8a3f4fbd6a9a7b8c668730694a1e54df3e07b9f88ac0000000000000000266a24b9e11b6daedbbf721da236106fc96811a14004cfd0993f2cb80aa4b08b8e63f56b088dfb0000000000000000266a24486174683d20f7cb2242dcb411c958d83fc15a597e717f78d5c0069c1cc9aa5bbbedbced0000000000000000266a24aa21a9ed0e6d5d5d118d53386b8f96816c77e677ac2bf1c0b70ec808ad64e2e2d42aa91200000000000000002b6a2952534b424c4f434b3a4778f81c9361986d6f4676472984140900fd4d6d94eed0c91ef359210042d1d50120000000000000000000000000000000000000000000000000000000000000000075f2fae0'}





{'txid': 'e8d412b098f1e7be73770cec490dc8f6db153a6d92d8274ad6fc21099fbdcd53', 'hash': '50af3f7f4503169d2e4bdf51c7c0b3722892da7195dd480e6b8ef8449ac03935', 'version': 2, 'size': 225, 'vsize': 144, 'weight': 573, 'locktime': 0, 'vin': [{'txid': 'b0a72862f4b152c998c92e23e936a8a091340c9d1eb0772434f9784455db28b7', 'vout': 1, 'scriptSig': {'asm': '', 'hex': ''}, 'txinwitness': ['304402205bdc6ec17482e66844bda20c4b1ca2a23a69087da49f91c108f8dfdfb1ee32b402200c931653b7882ef6c8e20a56a8db5e72a5799ad43cf42259d38b019087d9fc7301', '02d2aa190c5544f76269200a9ea61222d6de1ea72c20cf3f667393389337f9d935'], 'sequence': 4294967293}], 'vout': [{'value': Decimal('0.00994263'), 'n': 0, 'scriptPubKey': {'asm': 'OP_DUP OP_HASH160 1fb4a282ce2e568f22fff8878657bbc686a295d4 OP_EQUALVERIFY OP_CHECKSIG', 'hex': '76a9141fb4a282ce2e568f22fff8878657bbc686a295d488ac', 'address': '13teLg3rUKCFMCp23vFZUUy5KpKEQi64JG', 'type': 'pubkeyhash'}}, {'value': Decimal('0.47324641'), 'n': 1, 'scriptPubKey': {'asm': '0 b1a6c7c5fee0acb48031d7ac385380c617e45366', 'hex': '0014b1a6c7c5fee0acb48031d7ac385380c617e45366', 'address': 'bc1qkxnv0307uzktfqp367krs5uqcct7g5mxc3p77c', 'type': 'witness_v0_keyhash'}}], 'fee': Decimal('0.00070000'), 'hex': '02000000000101b728db554478f9342477b01e9d0c3491a0a836e9232ec998c952b1f46228a7b00100000000fdffffff02d72b0f00000000001976a9141fb4a282ce2e568f22fff8878657bbc686a295d488ace11dd20200000000160014b1a6c7c5fee0acb48031d7ac385380c617e453660247304402205bdc6ec17482e66844bda20c4b1ca2a23a69087da49f91c108f8dfdfb1ee32b402200c931653b7882ef6c8e20a56a8db5e72a5799ad43cf42259d38b019087d9fc73012102d2aa190c5544f76269200a9ea61222d6de1ea72c20cf3f667393389337f9d93500000000'}
